{
  "_format": "hh-sol-artifact-1",
  "contractName": "EnergyTrading",
  "sourceName": "contracts/EnergyTrading.sol",
  "abi": [
    {
      "anonymous": false,
      "inputs": [
        {
          "indexed": false,
          "internalType": "address",
          "name": "from",
          "type": "address"
        },
        {
          "indexed": false,
          "internalType": "address",
          "name": "to",
          "type": "address"
        },
        {
          "indexed": false,
          "internalType": "uint256",
          "name": "units",
          "type": "uint256"
        },
        {
          "indexed": false,
          "internalType": "uint256",
          "name": "cost",
          "type": "uint256"
        }
      ],
      "name": "Transaction",
      "type": "event"
    },
    {
      "inputs": [],
      "name": "addBalance",
      "outputs": [],
      "stateMutability": "payable",
      "type": "function"
    },
    {
      "inputs": [
        {
          "internalType": "uint256",
          "name": "units",
          "type": "uint256"
        }
      ],
      "name": "addEnergy",
      "outputs": [],
      "stateMutability": "nonpayable",
      "type": "function"
    },
    {
      "inputs": [
        {
          "internalType": "address",
          "name": "producer",
          "type": "address"
        },
        {
          "internalType": "uint256",
          "name": "units",
          "type": "uint256"
        }
      ],
      "name": "buyEnergy",
      "outputs": [],
      "stateMutability": "nonpayable",
      "type": "function"
    },
    {
      "inputs": [
        {
          "internalType": "address",
          "name": "user",
          "type": "address"
        }
      ],
      "name": "getBalance",
      "outputs": [
        {
          "internalType": "uint256",
          "name": "",
          "type": "uint256"
        }
      ],
      "stateMutability": "view",
      "type": "function"
    },
    {
      "inputs": [
        {
          "internalType": "address",
          "name": "user",
          "type": "address"
        }
      ],
      "name": "getEnergy",
      "outputs": [
        {
          "internalType": "uint256",
          "name": "",
          "type": "uint256"
        }
      ],
      "stateMutability": "view",
      "type": "function"
    },
    {
      "inputs": [],
      "name": "pricePerUnit",
      "outputs": [
        {
          "internalType": "uint256",
          "name": "",
          "type": "uint256"
        }
      ],
      "stateMutability": "view",
      "type": "function"
    },
    {
      "inputs": [
        {
          "internalType": "address",
          "name": "",
          "type": "address"
        }
      ],
      "name": "users",
      "outputs": [
        {
          "internalType": "uint256",
          "name": "balance",
          "type": "uint256"
        },
        {
          "internalType": "uint256",
          "name": "energy",
          "type": "uint256"
        }
      ],
      "stateMutability": "view",
      "type": "function"
    }
  ],
  "bytecode": "0x608060405260018055348015601357600080fd5b5061095f806100236000396000f3fe6080604052600436106100705760003560e01c8063a87430ba1161004e578063a87430ba14610104578063b163cc3814610142578063e66825c31461014c578063f8b2cb4f1461017757610070565b806334576e931461007557806336fd7e1b1461009e5780638fc0f5eb146100c7575b600080fd5b34801561008157600080fd5b5061009c600480360381019061009791906105c8565b6101b4565b005b3480156100aa57600080fd5b506100c560048036038101906100c09190610653565b61020f565b005b3480156100d357600080fd5b506100ee60048036038101906100e99190610693565b610473565b6040516100fb91906106cf565b60405180910390f35b34801561011057600080fd5b5061012b60048036038101906101269190610693565b6104be565b6040516101399291906106ea565b60405180910390f35b61014a6104e2565b005b34801561015857600080fd5b5061016161053c565b60405161016e91906106cf565b60405180910390f35b34801561018357600080fd5b5061019e60048036038101906101999190610693565b610542565b6040516101ab91906106cf565b60405180910390f35b806000803373ffffffffffffffffffffffffffffffffffffffff1673ffffffffffffffffffffffffffffffffffffffff16815260200190815260200160002060010160008282546102059190610742565b9250508190555050565b60006001548261021f9190610776565b9050806000803373ffffffffffffffffffffffffffffffffffffffff1673ffffffffffffffffffffffffffffffffffffffff1681526020019081526020016000206000015410156102a5576040517f08c379a000000000000000000000000000000000000000000000000000000000815260040161029c90610815565b60405180910390fd5b816000808573ffffffffffffffffffffffffffffffffffffffff1673ffffffffffffffffffffffffffffffffffffffff168152602001908152602001600020600101541015610329576040517f08c379a000000000000000000000000000000000000000000000000000000000815260040161032090610881565b60405180910390fd5b806000803373ffffffffffffffffffffffffffffffffffffffff1673ffffffffffffffffffffffffffffffffffffffff168152602001908152602001600020600001600082825461037a91906108a1565b92505081905550806000808573ffffffffffffffffffffffffffffffffffffffff1673ffffffffffffffffffffffffffffffffffffffff16815260200190815260200160002060000160008282546103d29190610742565b92505081905550816000808573ffffffffffffffffffffffffffffffffffffffff1673ffffffffffffffffffffffffffffffffffffffff168152602001908152602001600020600101600082825461042a91906108a1565b925050819055507ff4b6b12773a7000ee84e1736044fa4864d44afcd8ffdc5ed7ffa63c2e16581913384848460405161046694939291906108e4565b60405180910390a1505050565b60008060008373ffffffffffffffffffffffffffffffffffffffff1673ffffffffffffffffffffffffffffffffffffffff168152602001908152602001600020600101549050919050565b60006020528060005260406000206000915090508060000154908060010154905082565b346000803373ffffffffffffffffffffffffffffffffffffffff1673ffffffffffffffffffffffffffffffffffffffff16815260200190815260200160002060000160008282546105339190610742565b92505081905550565b60015481565b60008060008373ffffffffffffffffffffffffffffffffffffffff1673ffffffffffffffffffffffffffffffffffffffff168152602001908152602001600020600001549050919050565b600080fd5b6000819050919050565b6105a581610592565b81146105b057600080fd5b50565b6000813590506105c28161059c565b92915050565b6000602082840312156105de576105dd61058d565b5b60006105ec848285016105b3565b91505092915050565b600073ffffffffffffffffffffffffffffffffffffffff82169050919050565b6000610620826105f5565b9050919050565b61063081610615565b811461063b57600080fd5b50565b60008135905061064d81610627565b92915050565b6000806040838503121561066a5761066961058d565b5b60006106788582860161063e565b9250506020610689858286016105b3565b9150509250929050565b6000602082840312156106a9576106a861058d565b5b60006106b78482850161063e565b91505092915050565b6106c981610592565b82525050565b60006020820190506106e460008301846106c0565b92915050565b60006040820190506106ff60008301856106c0565b61070c60208301846106c0565b9392505050565b7f4e487b7100000000000000000000000000000000000000000000000000000000600052601160045260246000fd5b600061074d82610592565b915061075883610592565b92508282019050808211156107705761076f610713565b5b92915050565b600061078182610592565b915061078c83610592565b925082820261079a81610592565b915082820484148315176107b1576107b0610713565b5b5092915050565b600082825260208201905092915050565b7f4e6f7420656e6f7567682062616c616e63650000000000000000000000000000600082015250565b60006107ff6012836107b8565b915061080a826107c9565b602082019050919050565b6000602082019050818103600083015261082e816107f2565b9050919050565b7f4e6f7420656e6f75676820656e65726779000000000000000000000000000000600082015250565b600061086b6011836107b8565b915061087682610835565b602082019050919050565b6000602082019050818103600083015261089a8161085e565b9050919050565b60006108ac82610592565b91506108b783610592565b92508282039050818111156108cf576108ce610713565b5b92915050565b6108de81610615565b82525050565b60006080820190506108f960008301876108d5565b61090660208301866108d5565b61091360408301856106c0565b61092060608301846106c0565b9594505050505056fea2646970667358221220c86378e8fb81aabdd7895cb8bdf0459886ab603cc1ce7c7b5fb117634eca91cf64736f6c634300081c0033",
  "linkReferences": {},
  "deployedLinkReferences": {}
}